{
  "transactions": [
    {
      "hash": "0x57c0d57bfd734c20c67867b52dbd78c6cf2f7d1c8cd53dec9792e7a365ac77e1",
      "transactionType": "CALL",
      "contractName": null,
      "contractAddress": "0x3a28b4fd35491ea51f42dab77828f5f73ffe43c8",
      "function": "createBounty(string,string,string,uint256,uint256,uint256)",
      "arguments": [
        "\"Find the following Easter eggs\"",
        "\"We're looking for researchers to provide an in-depth analysis of the benefits and challenges of using blockchain technology in supply chain management. Please provide a 5-page report in PDF format.\"",
        "\"https://upload.wikimedia.org/wikipedia/commons/thumb/5/54/Bg-easter-eggs.jpg/1200px-Bg-easter-eggs.jpg\"",
        "15",
        "15",
        "1720818526"
      ],
      "transaction": {
        "from": "0x30d38078d6117285d6730f971d3f50a9004a575b",
        "to": "0x3a28b4fd35491ea51f42dab77828f5f73ffe43c8",
        "gas": "0xa2590",
        "value": "0xe1",
        "input": "0xb4d0b8fe00000000000000000000000000000000000000000000000000000000000000c000000000000000000000000000000000000000000000000000000000000001000000000000000000000000000000000000000000000000000000000000000200000000000000000000000000000000000000000000000000000000000000000f000000000000000000000000000000000000000000000000000000000000000f0000000000000000000000000000000000000000000000000000000066919b5e000000000000000000000000000000000000000000000000000000000000001e46696e642074686520666f6c6c6f77696e67204561737465722065676773000000000000000000000000000000000000000000000000000000000000000000c55765277265206c6f6f6b696e6720666f7220726573656172636865727320746f2070726f7669646520616e20696e2d646570746820616e616c79736973206f66207468652062656e656669747320616e64206368616c6c656e676573206f66207573696e6720626c6f636b636861696e20746563686e6f6c6f677920696e20737570706c7920636861696e206d616e6167656d656e742e20506c656173652070726f76696465206120352d70616765207265706f727420696e2050444620666f726d61742e000000000000000000000000000000000000000000000000000000000000000000000000000000000000000000000000000000000000000000006668747470733a2f2f75706c6f61642e77696b696d656469612e6f72672f77696b6970656469612f636f6d6d6f6e732f7468756d622f352f35342f42672d6561737465722d656767732e6a70672f3132303070782d42672d6561737465722d656767732e6a70670000000000000000000000000000000000000000000000000000",
        "nonce": "0x3b",
        "chainId": "0x14a34",
        "accessList": null,
        "type": null
      },
      "additionalContracts": [],
      "isFixedGasLimit": false
    },
    {
      "hash": "0xf55a4195b06356e7409578544409ae579ea4eca8fddb76be561b095ccb2aa2a7",
      "transactionType": "CALL",
      "contractName": null,
      "contractAddress": "0x3a28b4fd35491ea51f42dab77828f5f73ffe43c8",
      "function": "createBounty(string,string,string,uint256,uint256,uint256)",
      "arguments": [
        "\"Help NXS find the bug in his contract\"",
        "\"We're looking for researchers to provide an in-depth analysis of the benefits and challenges of using blockchain technology in supply chain management. Please provide a 5-page report in PDF format.\"",
        "\"https://www.treehugger.com/thmb/8he5rIw5n2ukJ44XXOHK7L-6PIc=/1500x0/filters:no_upscale():max_bytes(150000):strip_icc()/__opt__aboutcom__coeus__resources__content_migration__mnn__images__2017__05__lady-bug-on-leaf-e3cd36cdc3024129b61926ddf6ef386e.jpg\"",
        "30",
        "4",
        "1720832526"
      ],
      "transaction": {
        "from": "0x30d38078d6117285d6730f971d3f50a9004a575b",
        "to": "0x3a28b4fd35491ea51f42dab77828f5f73ffe43c8",
        "gas": "0xd63b4",
        "value": "0x78",
        "input": "0xb4d0b8fe00000000000000000000000000000000000000000000000000000000000000c000000000000000000000000000000000000000000000000000000000000001200000000000000000000000000000000000000000000000000000000000000220000000000000000000000000000000000000000000000000000000000000001e0000000000000000000000000000000000000000000000000000000000000004000000000000000000000000000000000000000000000000000000006691d20e000000000000000000000000000000000000000000000000000000000000002548656c70204e58532066696e64207468652062756720696e2068697320636f6e747261637400000000000000000000000000000000000000000000000000000000000000000000000000000000000000000000000000000000000000000000c55765277265206c6f6f6b696e6720666f7220726573656172636865727320746f2070726f7669646520616e20696e2d646570746820616e616c79736973206f66207468652062656e656669747320616e64206368616c6c656e676573206f66207573696e6720626c6f636b636861696e20746563686e6f6c6f677920696e20737570706c7920636861696e206d616e6167656d656e742e20506c656173652070726f76696465206120352d70616765207265706f727420696e2050444620666f726d61742e00000000000000000000000000000000000000000000000000000000000000000000000000000000000000000000000000000000000000000000f968747470733a2f2f7777772e747265656875676765722e636f6d2f74686d622f38686535724977356e32756b4a343458584f484b374c2d365049633d2f3135303078302f66696c746572733a6e6f5f75707363616c6528293a6d61785f627974657328313530303030293a73747269705f69636328292f5f5f6f70745f5f61626f7574636f6d5f5f636f6575735f5f7265736f75726365735f5f636f6e74656e745f6d6967726174696f6e5f5f6d6e6e5f5f696d616765735f5f323031375f5f30355f5f6c6164792d6275672d6f6e2d6c6561662d65336364333663646333303234313239623631393236646466366566333836652e6a706700000000000000",
        "nonce": "0x3c",
        "chainId": "0x14a34",
        "accessList": null,
        "type": null
      },
      "additionalContracts": [],
      "isFixedGasLimit": false
    },
    {
      "hash": "0x03c9d625d96e21617718f845f1b00fe3a0bef2654f7230d36ef63d92a50813c1",
      "transactionType": "CALL",
      "contractName": null,
      "contractAddress": "0x3a28b4fd35491ea51f42dab77828f5f73ffe43c8",
      "function": "createBounty(string,string,string,uint256,uint256,uint256)",
      "arguments": [
        "\"First one to find and capture a koala\"",
        "\"We're looking for researchers to provide an in-depth analysis of the benefits and challenges of using blockchain technology in supply chain management. Please provide a 5-page report in PDF format.\"",
        "\"https://encrypted-tbn0.gstatic.com/images?q=tbn:ANd9GcSNr1KNX_F0co7_o23YbK0NE3vbFLXfXb6uRA&s\"",
        "10",
        "1",
        "1720832126"
      ],
      "transaction": {
        "from": "0x30d38078d6117285d6730f971d3f50a9004a575b",
        "to": "0x3a28b4fd35491ea51f42dab77828f5f73ffe43c8",
        "gas": "0xa40ff",
        "value": "0xa",
        "input": "0xb4d0b8fe00000000000000000000000000000000000000000000000000000000000000c000000000000000000000000000000000000000000000000000000000000001200000000000000000000000000000000000000000000000000000000000000220000000000000000000000000000000000000000000000000000000000000000a0000000000000000000000000000000000000000000000000000000000000001000000000000000000000000000000000000000000000000000000006691d07e00000000000000000000000000000000000000000000000000000000000000254669727374206f6e6520746f2066696e6420616e6420636170747572652061206b6f616c6100000000000000000000000000000000000000000000000000000000000000000000000000000000000000000000000000000000000000000000c55765277265206c6f6f6b696e6720666f7220726573656172636865727320746f2070726f7669646520616e20696e2d646570746820616e616c79736973206f66207468652062656e656669747320616e64206368616c6c656e676573206f66207573696e6720626c6f636b636861696e20746563686e6f6c6f677920696e20737570706c7920636861696e206d616e6167656d656e742e20506c656173652070726f76696465206120352d70616765207265706f727420696e2050444620666f726d61742e000000000000000000000000000000000000000000000000000000000000000000000000000000000000000000000000000000000000000000005c68747470733a2f2f656e637279707465642d74626e302e677374617469632e636f6d2f696d616765733f713d74626e3a414e64394763534e72314b4e585f4630636f375f6f323359624b304e45337662464c5866586236755241267300000000",
        "nonce": "0x3d",
        "chainId": "0x14a34",
        "accessList": null,
        "type": null
      },
      "additionalContracts": [],
      "isFixedGasLimit": false
    }
  ],
  "receipts": [
    {
      "status": "0x1",
      "cumulativeGasUsed": "0x12e827",
      "logs": [],
      "logsBloom": "0x00000000000000000000000000000000000000000000000000000000000000000000000000000000000000000000000000000000000000000000000000000000000000000000000000000000000000000000000000000000000000000000000000000000000000000000000000000000000000000000000000000000000000000000000000000000000000000000000000000000000000000000000000000000000000000000000000000000000000000000000000000000000000000000000000000000000000000000000000000000000000000000000000000000000000000000000000000000000000000000000000000000000000000000000000000000",
      "type": "0x2",
      "transactionHash": "0x57c0d57bfd734c20c67867b52dbd78c6cf2f7d1c8cd53dec9792e7a365ac77e1",
      "transactionIndex": "0x6",
      "blockHash": "0xb35bdcb2bc42f0945c41d5061873808c29271f074818e766faef216c7e7c3a49",
      "blockNumber": "0xbf19b7",
      "gasUsed": "0x75897",
      "effectiveGasPrice": "0xf4347",
      "from": "0x30d38078d6117285d6730f971d3f50a9004a575b",
      "to": "0x3a28b4fd35491ea51f42dab77828f5f73ffe43c8",
      "contractAddress": null,
      "l1BaseFeeScalar": "0x44d",
      "l1BlobBaseFee": "0x1",
      "l1BlobBaseFeeScalar": "0xa118b",
      "l1Fee": "0x6acfd5ab8",
      "l1GasPrice": "0x10f8c3240",
      "l1GasUsed": "0x1654"
    },
    {
      "status": "0x1",
      "cumulativeGasUsed": "0x1c0fe2",
      "logs": [],
      "logsBloom": "0x00000000000000000000000000000000000000000000000000000000000000000000000000000000000000000000000000000000000000000000000000000000000000000000000000000000000000000000000000000000000000000000000000000000000000000000000000000000000000000000000000000000000000000000000000000000000000000000000000000000000000000000000000000000000000000000000000000000000000000000000000000000000000000000000000000000000000000000000000000000000000000000000000000000000000000000000000000000000000000000000000000000000000000000000000000000",
      "type": "0x2",
      "transactionHash": "0xf55a4195b06356e7409578544409ae579ea4eca8fddb76be561b095ccb2aa2a7",
      "transactionIndex": "0x7",
      "blockHash": "0xb35bdcb2bc42f0945c41d5061873808c29271f074818e766faef216c7e7c3a49",
      "blockNumber": "0xbf19b7",
      "gasUsed": "0x927bb",
      "effectiveGasPrice": "0xf4347",
      "from": "0x30d38078d6117285d6730f971d3f50a9004a575b",
      "to": "0x3a28b4fd35491ea51f42dab77828f5f73ffe43c8",
      "contractAddress": null,
      "l1BaseFeeScalar": "0x44d",
      "l1BlobBaseFee": "0x1",
      "l1BlobBaseFeeScalar": "0xa118b",
      "l1Fee": "0x9653eb82e",
      "l1GasPrice": "0x10f8c3240",
      "l1GasUsed": "0x1f6c"
    },
    {
      "status": "0x1",
      "cumulativeGasUsed": "0x237c56",
      "logs": [],
      "logsBloom": "0x00000000000000000000000000000000000000000000000000000000000000000000000000000000000000000000000000000000000000000000000000000000000000000000000000000000000000000000000000000000000000000000000000000000000000000000000000000000000000000000000000000000000000000000000000000000000000000000000000000000000000000000000000000000000000000000000000000000000000000000000000000000000000000000000000000000000000000000000000000000000000000000000000000000000000000000000000000000000000000000000000000000000000000000000000000000",
      "type": "0x2",
      "transactionHash": "0x03c9d625d96e21617718f845f1b00fe3a0bef2654f7230d36ef63d92a50813c1",
      "transactionIndex": "0x8",
      "blockHash": "0xb35bdcb2bc42f0945c41d5061873808c29271f074818e766faef216c7e7c3a49",
      "blockNumber": "0xbf19b7",
      "gasUsed": "0x76c74",
      "effectiveGasPrice": "0xf4347",
      "from": "0x30d38078d6117285d6730f971d3f50a9004a575b",
      "to": "0x3a28b4fd35491ea51f42dab77828f5f73ffe43c8",
      "contractAddress": null,
      "l1BaseFeeScalar": "0x44d",
      "l1BlobBaseFee": "0x1",
      "l1BlobBaseFeeScalar": "0xa118b",
      "l1Fee": "0x701053e46",
      "l1GasPrice": "0x10f8c3240",
      "l1GasUsed": "0x176d"
    }
  ],
  "libraries": [],
  "pending": [],
  "returns": {},
  "timestamp": 1720816215,
  "chain": 84532,
  "commit": "9f0eb6d"
}